{
  "_format": "hh-sol-artifact-1",
  "contractName": "TestContract",
  "sourceName": "contracts/TestContract.sol",
  "abi": [
    {
      "inputs": [
        {
          "internalType": "string",
          "name": "_name",
          "type": "string"
        },
        {
          "internalType": "string",
          "name": "_symbol",
          "type": "string"
        },
        {
          "internalType": "address",
          "name": "_signer",
          "type": "address"
        },
        {
          "internalType": "string",
          "name": "_initBaseURI",
          "type": "string"
        },
        {
          "internalType": "string",
          "name": "_initNotRevealedUri",
          "type": "string"
        }
      ],
      "stateMutability": "nonpayable",
      "type": "constructor"
    },
    {
      "anonymous": false,
      "inputs": [
        {
          "indexed": true,
          "internalType": "address",
          "name": "owner",
          "type": "address"
        },
        {
          "indexed": true,
          "internalType": "address",
          "name": "approved",
          "type": "address"
        },
        {
          "indexed": true,
          "internalType": "uint256",
          "name": "tokenId",
          "type": "uint256"
        }
      ],
      "name": "Approval",
      "type": "event"
    },
    {
      "anonymous": false,
      "inputs": [
        {
          "indexed": true,
          "internalType": "address",
          "name": "owner",
          "type": "address"
        },
        {
          "indexed": true,
          "internalType": "address",
          "name": "operator",
          "type": "address"
        },
        {
          "indexed": false,
          "internalType": "bool",
          "name": "approved",
          "type": "bool"
        }
      ],
      "name": "ApprovalForAll",
      "type": "event"
    },
    {
      "anonymous": false,
      "inputs": [
        {
          "indexed": true,
          "internalType": "address",
          "name": "previousOwner",
          "type": "address"
        },
        {
          "indexed": true,
          "internalType": "address",
          "name": "newOwner",
          "type": "address"
        }
      ],
      "name": "OwnershipTransferred",
      "type": "event"
    },
    {
      "anonymous": false,
      "inputs": [
        {
          "indexed": true,
          "internalType": "address",
          "name": "from",
          "type": "address"
        },
        {
          "indexed": true,
          "internalType": "address",
          "name": "to",
          "type": "address"
        },
        {
          "indexed": true,
          "internalType": "uint256",
          "name": "tokenId",
          "type": "uint256"
        }
      ],
      "name": "Transfer",
      "type": "event"
    },
    {
      "inputs": [],
      "name": "MAX_PER_TRANSACTION",
      "outputs": [
        {
          "internalType": "uint256",
          "name": "",
          "type": "uint256"
        }
      ],
      "stateMutability": "view",
      "type": "function"
    },
    {
      "inputs": [],
      "name": "MAX_SUPPLY",
      "outputs": [
        {
          "internalType": "uint256",
          "name": "",
          "type": "uint256"
        }
      ],
      "stateMutability": "view",
      "type": "function"
    },
    {
      "inputs": [],
      "name": "PRICE_FIRST",
      "outputs": [
        {
          "internalType": "uint256",
          "name": "",
          "type": "uint256"
        }
      ],
      "stateMutability": "view",
      "type": "function"
    },
    {
      "inputs": [],
      "name": "PRICE_PUBLIC",
      "outputs": [
        {
          "internalType": "uint256",
          "name": "",
          "type": "uint256"
        }
      ],
      "stateMutability": "view",
      "type": "function"
    },
    {
      "inputs": [],
      "name": "PRICE_SECOND",
      "outputs": [
        {
          "internalType": "uint256",
          "name": "",
          "type": "uint256"
        }
      ],
      "stateMutability": "view",
      "type": "function"
    },
    {
      "inputs": [
        {
          "internalType": "address",
          "name": "to",
          "type": "address"
        },
        {
          "internalType": "uint256",
          "name": "tokenId",
          "type": "uint256"
        }
      ],
      "name": "approve",
      "outputs": [],
      "stateMutability": "nonpayable",
      "type": "function"
    },
    {
      "inputs": [
        {
          "internalType": "address",
          "name": "owner",
          "type": "address"
        }
      ],
      "name": "balanceOf",
      "outputs": [
        {
          "internalType": "uint256",
          "name": "",
          "type": "uint256"
        }
      ],
      "stateMutability": "view",
      "type": "function"
    },
    {
      "inputs": [],
      "name": "baseExtension",
      "outputs": [
        {
          "internalType": "string",
          "name": "",
          "type": "string"
        }
      ],
      "stateMutability": "view",
      "type": "function"
    },
    {
      "inputs": [],
      "name": "baseUri",
      "outputs": [
        {
          "internalType": "string",
          "name": "",
          "type": "string"
        }
      ],
      "stateMutability": "view",
      "type": "function"
    },
    {
      "inputs": [
        {
          "internalType": "uint256",
          "name": "tokenId",
          "type": "uint256"
        }
      ],
      "name": "getApproved",
      "outputs": [
        {
          "internalType": "address",
          "name": "",
          "type": "address"
        }
      ],
      "stateMutability": "view",
      "type": "function"
    },
    {
      "inputs": [
        {
          "internalType": "address",
          "name": "owner",
          "type": "address"
        },
        {
          "internalType": "address",
          "name": "operator",
          "type": "address"
        }
      ],
      "name": "isApprovedForAll",
      "outputs": [
        {
          "internalType": "bool",
          "name": "",
          "type": "bool"
        }
      ],
      "stateMutability": "view",
      "type": "function"
    },
    {
      "inputs": [
        {
          "internalType": "uint256",
          "name": "numberOfTokens",
          "type": "uint256"
        }
      ],
      "name": "mint",
      "outputs": [],
      "stateMutability": "payable",
      "type": "function"
    },
    {
      "inputs": [],
      "name": "name",
      "outputs": [
        {
          "internalType": "string",
          "name": "",
          "type": "string"
        }
      ],
      "stateMutability": "view",
      "type": "function"
    },
    {
      "inputs": [],
      "name": "notRevealedUri",
      "outputs": [
        {
          "internalType": "string",
          "name": "",
          "type": "string"
        }
      ],
      "stateMutability": "view",
      "type": "function"
    },
    {
      "inputs": [],
      "name": "owner",
      "outputs": [
        {
          "internalType": "address",
          "name": "",
          "type": "address"
        }
      ],
      "stateMutability": "view",
      "type": "function"
    },
    {
      "inputs": [
        {
          "internalType": "uint256",
          "name": "tokenId",
          "type": "uint256"
        }
      ],
      "name": "ownerOf",
      "outputs": [
        {
          "internalType": "address",
          "name": "",
          "type": "address"
        }
      ],
      "stateMutability": "view",
      "type": "function"
    },
    {
      "inputs": [],
      "name": "paused",
      "outputs": [
        {
          "internalType": "bool",
          "name": "",
          "type": "bool"
        }
      ],
      "stateMutability": "view",
      "type": "function"
    },
    {
      "inputs": [],
      "name": "pausedWhitelist",
      "outputs": [
        {
          "internalType": "bool",
          "name": "",
          "type": "bool"
        }
      ],
      "stateMutability": "view",
      "type": "function"
    },
    {
      "inputs": [
        {
          "internalType": "address",
          "name": "_sender",
          "type": "address"
        },
        {
          "internalType": "bytes",
          "name": "_signature",
          "type": "bytes"
        }
      ],
      "name": "recoverData",
      "outputs": [
        {
          "internalType": "address",
          "name": "_data",
          "type": "address"
        }
      ],
      "stateMutability": "pure",
      "type": "function"
    },
    {
      "inputs": [],
      "name": "renounceOwnership",
      "outputs": [],
      "stateMutability": "nonpayable",
      "type": "function"
    },
    {
      "inputs": [
        {
          "internalType": "uint256",
          "name": "numberOfTokens",
          "type": "uint256"
        }
      ],
      "name": "reserve",
      "outputs": [],
      "stateMutability": "nonpayable",
      "type": "function"
    },
    {
      "inputs": [],
      "name": "revealed",
      "outputs": [
        {
          "internalType": "bool",
          "name": "",
          "type": "bool"
        }
      ],
      "stateMutability": "view",
      "type": "function"
    },
    {
      "inputs": [
        {
          "internalType": "address",
          "name": "from",
          "type": "address"
        },
        {
          "internalType": "address",
          "name": "to",
          "type": "address"
        },
        {
          "internalType": "uint256",
          "name": "tokenId",
          "type": "uint256"
        }
      ],
      "name": "safeTransferFrom",
      "outputs": [],
      "stateMutability": "nonpayable",
      "type": "function"
    },
    {
      "inputs": [
        {
          "internalType": "address",
          "name": "from",
          "type": "address"
        },
        {
          "internalType": "address",
          "name": "to",
          "type": "address"
        },
        {
          "internalType": "uint256",
          "name": "tokenId",
          "type": "uint256"
        },
        {
          "internalType": "bytes",
          "name": "_data",
          "type": "bytes"
        }
      ],
      "name": "safeTransferFrom",
      "outputs": [],
      "stateMutability": "nonpayable",
      "type": "function"
    },
    {
      "inputs": [
        {
          "internalType": "address",
          "name": "operator",
          "type": "address"
        },
        {
          "internalType": "bool",
          "name": "approved",
          "type": "bool"
        }
      ],
      "name": "setApprovalForAll",
      "outputs": [],
      "stateMutability": "nonpayable",
      "type": "function"
    },
    {
      "inputs": [
        {
          "internalType": "string",
          "name": "_newBaseExtension",
          "type": "string"
        }
      ],
      "name": "setBaseExtension",
      "outputs": [],
      "stateMutability": "nonpayable",
      "type": "function"
    },
    {
      "inputs": [
        {
          "internalType": "string",
          "name": "newBaseURI",
          "type": "string"
        }
      ],
      "name": "setBaseURI",
      "outputs": [],
      "stateMutability": "nonpayable",
      "type": "function"
    },
    {
      "inputs": [
        {
          "internalType": "string",
          "name": "_notRevealedURI",
          "type": "string"
        }
      ],
      "name": "setNotRevealedURI",
      "outputs": [],
      "stateMutability": "nonpayable",
      "type": "function"
    },
    {
      "inputs": [
        {
          "internalType": "bool",
          "name": "newState",
          "type": "bool"
        }
      ],
      "name": "setPaused",
      "outputs": [],
      "stateMutability": "nonpayable",
      "type": "function"
    },
    {
      "inputs": [
        {
          "internalType": "bool",
          "name": "newState",
          "type": "bool"
        }
      ],
      "name": "setPausedWhitelist",
      "outputs": [],
      "stateMutability": "nonpayable",
      "type": "function"
    },
    {
      "inputs": [
        {
          "internalType": "bool",
          "name": "newState",
          "type": "bool"
        }
      ],
      "name": "setRevealed",
      "outputs": [],
      "stateMutability": "nonpayable",
      "type": "function"
    },
    {
      "inputs": [
        {
          "internalType": "address",
          "name": "newSigner",
          "type": "address"
        }
      ],
      "name": "setSigner",
      "outputs": [],
      "stateMutability": "nonpayable",
      "type": "function"
    },
    {
      "inputs": [
        {
          "internalType": "bytes4",
          "name": "interfaceId",
          "type": "bytes4"
        }
      ],
      "name": "supportsInterface",
      "outputs": [
        {
          "internalType": "bool",
          "name": "",
          "type": "bool"
        }
      ],
      "stateMutability": "view",
      "type": "function"
    },
    {
      "inputs": [],
      "name": "symbol",
      "outputs": [
        {
          "internalType": "string",
          "name": "",
          "type": "string"
        }
      ],
      "stateMutability": "view",
      "type": "function"
    },
    {
      "inputs": [
        {
          "internalType": "uint256",
          "name": "index",
          "type": "uint256"
        }
      ],
      "name": "tokenByIndex",
      "outputs": [
        {
          "internalType": "uint256",
          "name": "",
          "type": "uint256"
        }
      ],
      "stateMutability": "view",
      "type": "function"
    },
    {
      "inputs": [
        {
          "internalType": "address",
          "name": "owner",
          "type": "address"
        },
        {
          "internalType": "uint256",
          "name": "index",
          "type": "uint256"
        }
      ],
      "name": "tokenOfOwnerByIndex",
      "outputs": [
        {
          "internalType": "uint256",
          "name": "",
          "type": "uint256"
        }
      ],
      "stateMutability": "view",
      "type": "function"
    },
    {
      "inputs": [
        {
          "internalType": "uint256",
          "name": "tokenId",
          "type": "uint256"
        }
      ],
      "name": "tokenURI",
      "outputs": [
        {
          "internalType": "string",
          "name": "",
          "type": "string"
        }
      ],
      "stateMutability": "view",
      "type": "function"
    },
    {
      "inputs": [],
      "name": "totalSupply",
      "outputs": [
        {
          "internalType": "uint256",
          "name": "",
          "type": "uint256"
        }
      ],
      "stateMutability": "view",
      "type": "function"
    },
    {
      "inputs": [
        {
          "internalType": "address",
          "name": "from",
          "type": "address"
        },
        {
          "internalType": "address",
          "name": "to",
          "type": "address"
        },
        {
          "internalType": "uint256",
          "name": "tokenId",
          "type": "uint256"
        }
      ],
      "name": "transferFrom",
      "outputs": [],
      "stateMutability": "nonpayable",
      "type": "function"
    },
    {
      "inputs": [
        {
          "internalType": "address",
          "name": "newOwner",
          "type": "address"
        }
      ],
      "name": "transferOwnership",
      "outputs": [],
      "stateMutability": "nonpayable",
      "type": "function"
    },
    {
      "inputs": [
        {
          "internalType": "uint256",
          "name": "numberOfTokens",
          "type": "uint256"
        },
        {
          "internalType": "uint256",
          "name": "limit",
          "type": "uint256"
        },
        {
          "internalType": "bytes",
          "name": "_signature",
          "type": "bytes"
        }
      ],
      "name": "whitelistMint",
      "outputs": [],
      "stateMutability": "payable",
      "type": "function"
    },
    {
      "inputs": [],
      "name": "withdraw",
      "outputs": [],
      "stateMutability": "nonpayable",
      "type": "function"
    }
  ],
  "bytecode": "0x60c06040526005608081905264173539b7b760d91b60a09081526200002891600c9190620002ce565b50600e805462ff00001961ff001960ff19909216600117919091166101001716905567011c37937e080000600f5567013fbe85edc9000060105566d529ae9e8600006011553480156200007a57600080fd5b5060405162003587380380620035878339810160408190526200009d916200041f565b845185908590620000b6906000906020850190620002ce565b508051620000cc906001906020840190620002ce565b505050620000e9620000e36200011560201b60201c565b62000119565b620000f4826200016b565b620000ff81620001d3565b6200010a836200022e565b5050505050620005a7565b3390565b600a80546001600160a01b038381166001600160a01b0319831681179093556040519116919082907f8be0079c531659141344cd1fd0a4f28419497f9722a3daafe3b4186f6b6457e090600090a35050565b6200017562000115565b6001600160a01b031662000188620002bf565b6001600160a01b031614620001ba5760405162461bcd60e51b8152600401620001b190620004f4565b60405180910390fd5b8051620001cf90600b906020840190620002ce565b5050565b620001dd62000115565b6001600160a01b0316620001f0620002bf565b6001600160a01b031614620002195760405162461bcd60e51b8152600401620001b190620004f4565b8051620001cf90600d906020840190620002ce565b6200023862000115565b6001600160a01b03166200024b620002bf565b6001600160a01b031614620002745760405162461bcd60e51b8152600401620001b190620004f4565b6001600160a01b0381166200029d5760405162461bcd60e51b8152600401620001b19062000529565b601280546001600160a01b0319166001600160a01b0392909216919091179055565b600a546001600160a01b031690565b828054620002dc9062000554565b90600052602060002090601f0160209004810192826200030057600085556200034b565b82601f106200031b57805160ff19168380011785556200034b565b828001600101855582156200034b579182015b828111156200034b5782518255916020019190600101906200032e565b50620003599291506200035d565b5090565b5b808211156200035957600081556001016200035e565b600082601f83011262000385578081fd5b81516001600160401b0380821115620003a257620003a262000591565b6040516020601f8401601f1916820181018381118382101715620003ca57620003ca62000591565b6040528382528584018101871015620003e1578485fd5b8492505b83831015620004045785830181015182840182015291820191620003e5565b838311156200041557848185840101525b5095945050505050565b600080600080600060a0868803121562000437578081fd5b85516001600160401b03808211156200044e578283fd5b6200045c89838a0162000374565b9650602088015191508082111562000472578283fd5b6200048089838a0162000374565b604089015190965091506001600160a01b03821682146200049f578283fd5b606088015191945080821115620004b4578283fd5b620004c289838a0162000374565b93506080880151915080821115620004d8578283fd5b50620004e78882890162000374565b9150509295509295909350565b6020808252818101527f4f776e61626c653a2063616c6c6572206973206e6f7420746865206f776e6572604082015260600190565b602080825260119082015270696e636f7272656374206164647265737360781b604082015260600190565b6002810460018216806200056957607f821691505b602082108114156200058b57634e487b7160e01b600052602260045260246000fd5b50919050565b634e487b7160e01b600052604160045260246000fd5b612fd080620005b76000396000f3fe6080604052600436106102515760003560e01c8063715018a611610139578063b88d4fde116100b6578063e0a808531161007a578063e0a8085314610658578063e985e9c514610678578063ec596b7214610698578063f2c4ce1e146106ab578063f2fde38b146106cb578063f72ec829146106eb57610251565b8063b88d4fde146105ce578063c6682862146105ee578063c87b56dd14610603578063cb14eb8714610623578063da3ef23f1461063857610251565b80639abc8320116100fd5780639abc83201461055c578063a0712d6814610571578063a22cb46514610584578063a56d7730146105a4578063a8a4b4f1146105b957610251565b8063715018a6146104dd578063819b25ba146104f2578063844847f6146105125780638da5cb5b1461053257806395d89b411461054757610251565b806332cb6b0c116101d257806355f804b31161019657806355f804b31461042857806357ae51fb146104485780635c975abb146104685780636352211e1461047d5780636c19e7831461049d57806370a08231146104bd57610251565b806332cb6b0c146103a95780633ccfd60b146103be57806342842e0e146103d35780634f6ccce7146103f3578063518302271461041357610251565b80631315be25116102195780631315be251461031257806316c38b3c1461033457806318160ddd1461035457806323b872dd146103695780632f745c591461038957610251565b806301ffc9a71461025657806306fdde031461028c578063081812fc146102ae578063081c8c44146102db578063095ea7b3146102f0575b600080fd5b34801561026257600080fd5b50610276610271366004612430565b610700565b6040516102839190612687565b60405180910390f35b34801561029857600080fd5b506102a1610713565b60405161028391906126b0565b3480156102ba57600080fd5b506102ce6102c93660046124ae565b6107a5565b6040516102839190612636565b3480156102e757600080fd5b506102a16107f1565b3480156102fc57600080fd5b5061031061030b3660046123ed565b61087f565b005b34801561031e57600080fd5b50610327610917565b6040516102839190612e35565b34801561034057600080fd5b5061031061034f366004612416565b61091d565b34801561036057600080fd5b5061032761096f565b34801561037557600080fd5b506103106103843660046122bf565b610975565b34801561039557600080fd5b506103276103a43660046123ed565b6109ad565b3480156103b557600080fd5b506103276109ff565b3480156103ca57600080fd5b50610310610a05565b3480156103df57600080fd5b506103106103ee3660046122bf565b610a77565b3480156103ff57600080fd5b5061032761040e3660046124ae565b610a92565b34801561041f57600080fd5b50610276610aed565b34801561043457600080fd5b50610310610443366004612468565b610afc565b34801561045457600080fd5b50610310610463366004612416565b610b4e565b34801561047457600080fd5b50610276610ba7565b34801561048957600080fd5b506102ce6104983660046124ae565b610bb0565b3480156104a957600080fd5b506103106104b8366004612273565b610be5565b3480156104c957600080fd5b506103276104d8366004612273565b610c6c565b3480156104e957600080fd5b50610310610cb0565b3480156104fe57600080fd5b5061031061050d3660046124ae565b610cfb565b34801561051e57600080fd5b506102ce61052d36600461239c565b610da1565b34801561053e57600080fd5b506102ce610e21565b34801561055357600080fd5b506102a1610e30565b34801561056857600080fd5b506102a1610e3f565b61031061057f3660046124ae565b610e4c565b34801561059057600080fd5b5061031061059f366004612373565b610f20565b3480156105b057600080fd5b50610327610f32565b3480156105c557600080fd5b50610327610f38565b3480156105da57600080fd5b506103106105e93660046122fa565b610f3e565b3480156105fa57600080fd5b506102a1610f7d565b34801561060f57600080fd5b506102a161061e3660046124ae565b610f8a565b34801561062f57600080fd5b506103276110b2565b34801561064457600080fd5b50610310610653366004612468565b6110b7565b34801561066457600080fd5b50610310610673366004612416565b611109565b34801561068457600080fd5b5061027661069336600461228d565b611164565b6103106106a63660046124c6565b611192565b3480156106b757600080fd5b506103106106c6366004612468565b611312565b3480156106d757600080fd5b506103106106e6366004612273565b611364565b3480156106f757600080fd5b506102766113d5565b600061070b826113e3565b90505b919050565b60606000805461072290612ed8565b80601f016020809104026020016040519081016040528092919081815260200182805461074e90612ed8565b801561079b5780601f106107705761010080835404028352916020019161079b565b820191906000526020600020905b81548152906001019060200180831161077e57829003601f168201915b5050505050905090565b60006107b082611408565b6107d55760405162461bcd60e51b81526004016107cc90612b51565b60405180910390fd5b506000908152600460205260409020546001600160a01b031690565b600d80546107fe90612ed8565b80601f016020809104026020016040519081016040528092919081815260200182805461082a90612ed8565b80156108775780601f1061084c57610100808354040283529160200191610877565b820191906000526020600020905b81548152906001019060200180831161085a57829003601f168201915b505050505081565b600061088a82610bb0565b9050806001600160a01b0316836001600160a01b031614156108be5760405162461bcd60e51b81526004016107cc90612cf7565b806001600160a01b03166108d0611425565b6001600160a01b031614806108ec57506108ec81610693611425565b6109085760405162461bcd60e51b81526004016107cc906129ea565b6109128383611429565b505050565b60115481565b610925611425565b6001600160a01b0316610936610e21565b6001600160a01b03161461095c5760405162461bcd60e51b81526004016107cc90612bc8565b600e805460ff1916911515919091179055565b60085490565b610986610980611425565b82611497565b6109a25760405162461bcd60e51b81526004016107cc90612d6f565b61091283838361151c565b60006109b883610c6c565b82106109d65760405162461bcd60e51b81526004016107cc9061275b565b506001600160a01b03919091166000908152600660209081526040808320938352929052205490565b614e1f81565b610a0d611425565b6001600160a01b0316610a1e610e21565b6001600160a01b031614610a445760405162461bcd60e51b81526004016107cc90612bc8565b6040514790339082156108fc029083906000818181858888f19350505050158015610a73573d6000803e3d6000fd5b5050565b61091283838360405180602001604052806000815250610f3e565b6000610a9c61096f565b8210610aba5760405162461bcd60e51b81526004016107cc90612dc0565b60088281548110610adb57634e487b7160e01b600052603260045260246000fd5b90600052602060002001549050919050565b600e5462010000900460ff1681565b610b04611425565b6001600160a01b0316610b15610e21565b6001600160a01b031614610b3b5760405162461bcd60e51b81526004016107cc90612bc8565b8051610a7390600b906020840190612103565b610b56611425565b6001600160a01b0316610b67610e21565b6001600160a01b031614610b8d5760405162461bcd60e51b81526004016107cc90612bc8565b600e80549115156101000261ff0019909216919091179055565b600e5460ff1681565b6000818152600260205260408120546001600160a01b03168061070b5760405162461bcd60e51b81526004016107cc90612a91565b610bed611425565b6001600160a01b0316610bfe610e21565b6001600160a01b031614610c245760405162461bcd60e51b81526004016107cc90612bc8565b6001600160a01b038116610c4a5760405162461bcd60e51b81526004016107cc90612ccc565b601280546001600160a01b0319166001600160a01b0392909216919091179055565b60006001600160a01b038216610c945760405162461bcd60e51b81526004016107cc90612a47565b506001600160a01b031660009081526003602052604090205490565b610cb8611425565b6001600160a01b0316610cc9610e21565b6001600160a01b031614610cef5760405162461bcd60e51b81526004016107cc90612bc8565b610cf96000611649565b565b610d03611425565b6001600160a01b0316610d14610e21565b6001600160a01b031614610d3a5760405162461bcd60e51b81526004016107cc90612bc8565b6000610d4461096f565b9050614e1f610d538383612e4a565b1115610d715760405162461bcd60e51b81526004016107cc9061283e565b60005b8281101561091257610d8f33610d8a8385612e4a565b61169b565b80610d9981612f13565b915050610d74565b60008084604051602001610db59190612636565b604051602081830303815290604052805190602001209050610e1884848080601f016020809104026020016040519081016040528093929190818152602001838380828437600092019190915250610e1292508591506116b59050565b906116e5565b95945050505050565b600a546001600160a01b031690565b60606001805461072290612ed8565b600b80546107fe90612ed8565b6000610e5661096f565b600e5490915060ff1615610e7c5760405162461bcd60e51b81526004016107cc90612e0c565b601e821115610e9d5760405162461bcd60e51b81526004016107cc90612d38565b614e1f610eaa8383612e4a565b1115610ec85760405162461bcd60e51b81526004016107cc9061283e565b3482601054610ed79190612e76565b1115610ef55760405162461bcd60e51b81526004016107cc90612925565b60005b8281101561091257610f0e33610d8a8385612e4a565b80610f1881612f13565b915050610ef8565b610a73610f2b611425565b8383611709565b60105481565b600f5481565b610f4f610f49611425565b83611497565b610f6b5760405162461bcd60e51b81526004016107cc90612d6f565b610f77848484846117ac565b50505050565b600c80546107fe90612ed8565b6060610f9582611408565b610fb15760405162461bcd60e51b81526004016107cc90612c7d565b600e5462010000900460ff1661105357600d8054610fce90612ed8565b80601f0160208091040260200160405190810160405280929190818152602001828054610ffa90612ed8565b80156110475780601f1061101c57610100808354040283529160200191611047565b820191906000526020600020905b81548152906001019060200180831161102a57829003601f168201915b5050505050905061070e565b600061105d6117df565b9050600081511161107d57604051806020016040528060008152506110ab565b80611087846117ee565b600c60405160200161109b93929190612543565b6040516020818303038152906040525b9392505050565b601e81565b6110bf611425565b6001600160a01b03166110d0610e21565b6001600160a01b0316146110f65760405162461bcd60e51b81526004016107cc90612bc8565b8051610a7390600c906020840190612103565b611111611425565b6001600160a01b0316611122610e21565b6001600160a01b0316146111485760405162461bcd60e51b81526004016107cc90612bc8565b600e8054911515620100000262ff000019909216919091179055565b6001600160a01b03918216600090815260056020908152604080832093909416825291909152205460ff1690565b600061119c61096f565b600e54909150610100900460ff16156111c75760405162461bcd60e51b81526004016107cc906126fa565b601e8511156111e85760405162461bcd60e51b81526004016107cc90612d38565b614e1f6111f58683612e4a565b11156112135760405162461bcd60e51b81526004016107cc9061283e565b61121f85600f54611909565b61123b5760405162461bcd60e51b81526004016107cc90612bfd565b6012546001600160a01b0316611252338585610da1565b6001600160a01b0316146112785760405162461bcd60e51b81526004016107cc90612b9d565b61128133610c6c565b6112b25761129185600f54611909565b6112ad5760405162461bcd60e51b81526004016107cc90612bfd565b6112df565b34856011546112c19190612e76565b11156112df5760405162461bcd60e51b81526004016107cc90612925565b60005b8581101561130a576112f833610d8a8385612e4a565b8061130281612f13565b9150506112e2565b505050505050565b61131a611425565b6001600160a01b031661132b610e21565b6001600160a01b0316146113515760405162461bcd60e51b81526004016107cc90612bc8565b8051610a7390600d906020840190612103565b61136c611425565b6001600160a01b031661137d610e21565b6001600160a01b0316146113a35760405162461bcd60e51b81526004016107cc90612bc8565b6001600160a01b0381166113c95760405162461bcd60e51b81526004016107cc906127f8565b6113d281611649565b50565b600e54610100900460ff1681565b60006001600160e01b0319821663780e9d6360e01b148061070b575061070b82611939565b6000908152600260205260409020546001600160a01b0316151590565b3390565b600081815260046020526040902080546001600160a01b0319166001600160a01b038416908117909155819061145e82610bb0565b6001600160a01b03167f8c5be1e5ebec7d5bd14f71427d1e84f3dd0314c0f7b2291e5b200ac8c7c3b92560405160405180910390a45050565b60006114a282611408565b6114be5760405162461bcd60e51b81526004016107cc9061299e565b60006114c983610bb0565b9050806001600160a01b0316846001600160a01b031614806115045750836001600160a01b03166114f9846107a5565b6001600160a01b0316145b8061151457506115148185611164565b949350505050565b826001600160a01b031661152f82610bb0565b6001600160a01b0316146115555760405162461bcd60e51b81526004016107cc90612c34565b6001600160a01b03821661157b5760405162461bcd60e51b81526004016107cc906128aa565b611586838383611979565b611591600082611429565b6001600160a01b03831660009081526003602052604081208054600192906115ba908490612e95565b90915550506001600160a01b03821660009081526003602052604081208054600192906115e8908490612e4a565b909155505060008181526002602052604080822080546001600160a01b0319166001600160a01b0386811691821790925591518493918716917fddf252ad1be2c89b69c2b068fc378daa952ba7f163c4a11628f55a4df523b3ef91a4505050565b600a80546001600160a01b038381166001600160a01b0319831681179093556040519116919082907f8be0079c531659141344cd1fd0a4f28419497f9722a3daafe3b4186f6b6457e090600090a35050565b610a73828260405180602001604052806000815250611984565b6000816040516020016116c89190612605565b604051602081830303815290604052805190602001209050919050565b60008060006116f485856119b7565b9150915061170181611a27565b509392505050565b816001600160a01b0316836001600160a01b0316141561173b5760405162461bcd60e51b81526004016107cc906128ee565b6001600160a01b0383811660008181526005602090815260408083209487168084529490915290819020805460ff1916851515179055517f17307eab39ab6107e8899845ad3d59bd9653f200f220920489ca2b5937696c319061179f908590612687565b60405180910390a3505050565b6117b784848461151c565b6117c384848484611b54565b610f775760405162461bcd60e51b81526004016107cc906127a6565b6060600b805461072290612ed8565b60608161181357506040805180820190915260018152600360fc1b602082015261070e565b8160005b811561183d578061182781612f13565b91506118369050600a83612e62565b9150611817565b60008167ffffffffffffffff81111561186657634e487b7160e01b600052604160045260246000fd5b6040519080825280601f01601f191660200182016040528015611890576020820181803683370190505b5090505b8415611514576118a5600183612e95565b91506118b2600a86612f2e565b6118bd906030612e4a565b60f81b8183815181106118e057634e487b7160e01b600052603260045260246000fd5b60200101906001600160f81b031916908160001a905350611902600a86612e62565b9450611894565b600080611917600185612e95565b6011546119249190612e76565b61192e9084612e4a565b341015949350505050565b60006001600160e01b031982166380ac58cd60e01b148061196a57506001600160e01b03198216635b5e139f60e01b145b8061070b575061070b82611c6f565b610912838383611c88565b61198e8383611d11565b61199b6000848484611b54565b6109125760405162461bcd60e51b81526004016107cc906127a6565b6000808251604114156119ee5760208301516040840151606085015160001a6119e287828585611df0565b94509450505050611a20565b825160401415611a185760208301516040840151611a0d868383611ed0565b935093505050611a20565b506000905060025b9250929050565b6000816004811115611a4957634e487b7160e01b600052602160045260246000fd5b1415611a54576113d2565b6001816004811115611a7657634e487b7160e01b600052602160045260246000fd5b1415611a945760405162461bcd60e51b81526004016107cc906126c3565b6002816004811115611ab657634e487b7160e01b600052602160045260246000fd5b1415611ad45760405162461bcd60e51b81526004016107cc90612724565b6003816004811115611af657634e487b7160e01b600052602160045260246000fd5b1415611b145760405162461bcd60e51b81526004016107cc9061295c565b6004816004811115611b3657634e487b7160e01b600052602160045260246000fd5b14156113d25760405162461bcd60e51b81526004016107cc90612ada565b6000611b68846001600160a01b0316611eff565b15611c6457836001600160a01b031663150b7a02611b84611425565b8786866040518563ffffffff1660e01b8152600401611ba6949392919061264a565b602060405180830381600087803b158015611bc057600080fd5b505af1925050508015611bf0575060408051601f3d908101601f19168201909252611bed9181019061244c565b60015b611c4a573d808015611c1e576040519150601f19603f3d011682016040523d82523d6000602084013e611c23565b606091505b508051611c425760405162461bcd60e51b81526004016107cc906127a6565b805181602001fd5b6001600160e01b031916630a85bd0160e11b149050611514565b506001949350505050565b6001600160e01b031981166301ffc9a760e01b14919050565b611c93838383610912565b6001600160a01b038316611caf57611caa81611f05565b611cd2565b816001600160a01b0316836001600160a01b031614611cd257611cd28382611f49565b6001600160a01b038216611cee57611ce981611fe6565b610912565b826001600160a01b0316826001600160a01b0316146109125761091282826120bf565b6001600160a01b038216611d375760405162461bcd60e51b81526004016107cc90612b1c565b611d4081611408565b15611d5d5760405162461bcd60e51b81526004016107cc90612873565b611d6960008383611979565b6001600160a01b0382166000908152600360205260408120805460019290611d92908490612e4a565b909155505060008181526002602052604080822080546001600160a01b0319166001600160a01b03861690811790915590518392907fddf252ad1be2c89b69c2b068fc378daa952ba7f163c4a11628f55a4df523b3ef908290a45050565b6000807f7fffffffffffffffffffffffffffffff5d576e7357a4501ddfe92f46681b20a0831115611e275750600090506003611ec7565b8460ff16601b14158015611e3f57508460ff16601c14155b15611e505750600090506004611ec7565b600060018787878760405160008152602001604052604051611e759493929190612692565b6020604051602081039080840390855afa158015611e97573d6000803e3d6000fd5b5050604051601f1901519150506001600160a01b038116611ec057600060019250925050611ec7565b9150600090505b94509492505050565b6000806001600160ff1b03831660ff84901c601b01611ef187828885611df0565b935093505050935093915050565b3b151590565b600880546000838152600960205260408120829055600182018355919091527ff3f7a9fe364faab93b216da50a3214154f22a0a2b415b23a84c8169e8b636ee30155565b60006001611f5684610c6c565b611f609190612e95565b600083815260076020526040902054909150808214611fb3576001600160a01b03841660009081526006602090815260408083208584528252808320548484528184208190558352600790915290208190555b5060009182526007602090815260408084208490556001600160a01b039094168352600681528383209183525290812055565b600854600090611ff890600190612e95565b6000838152600960205260408120546008805493945090928490811061202e57634e487b7160e01b600052603260045260246000fd5b90600052602060002001549050806008838154811061205d57634e487b7160e01b600052603260045260246000fd5b60009182526020808320909101929092558281526009909152604080822084905585825281205560088054806120a357634e487b7160e01b600052603160045260246000fd5b6001900381819060005260206000200160009055905550505050565b60006120ca83610c6c565b6001600160a01b039093166000908152600660209081526040808320868452825280832085905593825260079052919091209190915550565b82805461210f90612ed8565b90600052602060002090601f0160209004810192826121315760008555612177565b82601f1061214a57805160ff1916838001178555612177565b82800160010185558215612177579182015b8281111561217757825182559160200191906001019061215c565b50612183929150612187565b5090565b5b808211156121835760008155600101612188565b600067ffffffffffffffff808411156121b7576121b7612f6e565b604051601f8501601f1916810160200182811182821017156121db576121db612f6e565b6040528481529150818385018610156121f357600080fd5b8484602083013760006020868301015250509392505050565b80356001600160a01b038116811461070e57600080fd5b8035801515811461070e57600080fd5b60008083601f840112612244578182fd5b50813567ffffffffffffffff81111561225b578182fd5b602083019150836020828501011115611a2057600080fd5b600060208284031215612284578081fd5b6110ab8261220c565b6000806040838503121561229f578081fd5b6122a88361220c565b91506122b66020840161220c565b90509250929050565b6000806000606084860312156122d3578081fd5b6122dc8461220c565b92506122ea6020850161220c565b9150604084013590509250925092565b6000806000806080858703121561230f578081fd5b6123188561220c565b93506123266020860161220c565b925060408501359150606085013567ffffffffffffffff811115612348578182fd5b8501601f81018713612358578182fd5b6123678782356020840161219c565b91505092959194509250565b60008060408385031215612385578182fd5b61238e8361220c565b91506122b660208401612223565b6000806000604084860312156123b0578283fd5b6123b98461220c565b9250602084013567ffffffffffffffff8111156123d4578283fd5b6123e086828701612233565b9497909650939450505050565b600080604083850312156123ff578182fd5b6124088361220c565b946020939093013593505050565b600060208284031215612427578081fd5b6110ab82612223565b600060208284031215612441578081fd5b81356110ab81612f84565b60006020828403121561245d578081fd5b81516110ab81612f84565b600060208284031215612479578081fd5b813567ffffffffffffffff81111561248f578182fd5b8201601f8101841361249f578182fd5b6115148482356020840161219c565b6000602082840312156124bf578081fd5b5035919050565b600080600080606085870312156124db578384fd5b8435935060208501359250604085013567ffffffffffffffff8111156124ff578283fd5b61250b87828801612233565b95989497509550505050565b6000815180845261252f816020860160208601612eac565b601f01601f19169290920160200192915050565b6000845160206125568285838a01612eac565b8551918401916125698184848a01612eac565b855492019183906002810460018083168061258557607f831692505b8583108114156125a357634e487b7160e01b88526022600452602488fd5b8080156125b757600181146125c8576125f4565b60ff198516885283880195506125f4565b6125d18b612e3e565b895b858110156125ec5781548a8201529084019088016125d3565b505083880195505b50939b9a5050505050505050505050565b7f19457468657265756d205369676e6564204d6573736167653a0a3332000000008152601c810191909152603c0190565b6001600160a01b0391909116815260200190565b6001600160a01b038581168252841660208201526040810183905260806060820181905260009061267d90830184612517565b9695505050505050565b901515815260200190565b93845260ff9290921660208401526040830152606082015260800190565b6000602082526110ab6020830184612517565b60208082526018908201527f45434453413a20696e76616c6964207369676e61747572650000000000000000604082015260600190565b60208082526010908201526f15da1a5d195b1a5cdd0814185d5cd95960821b604082015260600190565b6020808252601f908201527f45434453413a20696e76616c6964207369676e6174757265206c656e67746800604082015260600190565b6020808252602b908201527f455243373231456e756d657261626c653a206f776e657220696e646578206f7560408201526a74206f6620626f756e647360a81b606082015260800190565b60208082526032908201527f4552433732313a207472616e7366657220746f206e6f6e20455243373231526560408201527131b2b4bb32b91034b6b83632b6b2b73a32b960711b606082015260800190565b60208082526026908201527f4f776e61626c653a206e6577206f776e657220697320746865207a65726f206160408201526564647265737360d01b606082015260800190565b6020808252818101527f507572636861736520776f756c6420657863656564206d617820746f6b656e73604082015260600190565b6020808252601c908201527f4552433732313a20746f6b656e20616c7265616479206d696e74656400000000604082015260600190565b60208082526024908201527f4552433732313a207472616e7366657220746f20746865207a65726f206164646040820152637265737360e01b606082015260800190565b60208082526019908201527f4552433732313a20617070726f766520746f2063616c6c657200000000000000604082015260600190565b6020808252601f908201527f45746865722076616c75652073656e74206973206e6f7420636f727265637400604082015260600190565b60208082526022908201527f45434453413a20696e76616c6964207369676e6174757265202773272076616c604082015261756560f01b606082015260800190565b6020808252602c908201527f4552433732313a206f70657261746f7220717565727920666f72206e6f6e657860408201526b34b9ba32b73a103a37b5b2b760a11b606082015260800190565b60208082526038908201527f4552433732313a20617070726f76652063616c6c6572206973206e6f74206f7760408201527f6e6572206e6f7220617070726f76656420666f7220616c6c0000000000000000606082015260800190565b6020808252602a908201527f4552433732313a2062616c616e636520717565727920666f7220746865207a65604082015269726f206164647265737360b01b606082015260800190565b60208082526029908201527f4552433732313a206f776e657220717565727920666f72206e6f6e657869737460408201526832b73a103a37b5b2b760b91b606082015260800190565b60208082526022908201527f45434453413a20696e76616c6964207369676e6174757265202776272076616c604082015261756560f01b606082015260800190565b6020808252818101527f4552433732313a206d696e7420746f20746865207a65726f2061646472657373604082015260600190565b6020808252602c908201527f4552433732313a20617070726f76656420717565727920666f72206e6f6e657860408201526b34b9ba32b73a103a37b5b2b760a11b606082015260800190565b602080825260119082015270496e76616c6964205369676e617475726560781b604082015260600190565b6020808252818101527f4f776e61626c653a2063616c6c6572206973206e6f7420746865206f776e6572604082015260600190565b6020808252601b908201527f45746865722076616c756573206973206e6f7420636f72726563740000000000604082015260600190565b60208082526029908201527f4552433732313a207472616e73666572206f6620746f6b656e2074686174206960408201526839903737ba1037bbb760b91b606082015260800190565b6020808252602f908201527f4552433732314d657461646174613a2055524920717565727920666f72206e6f60408201526e3732bc34b9ba32b73a103a37b5b2b760891b606082015260800190565b602080825260119082015270696e636f7272656374206164647265737360781b604082015260600190565b60208082526021908201527f4552433732313a20617070726f76616c20746f2063757272656e74206f776e656040820152603960f91b606082015260800190565b6020808252601b908201527f4578636565646564206d617820746f6b656e2070757263686173650000000000604082015260600190565b60208082526031908201527f4552433732313a207472616e736665722063616c6c6572206973206e6f74206f6040820152701ddb995c881b9bdc88185c1c1c9bdd9959607a1b606082015260800190565b6020808252602c908201527f455243373231456e756d657261626c653a20676c6f62616c20696e646578206f60408201526b7574206f6620626f756e647360a01b606082015260800190565b6020808252600f908201526e10dbdb9d1c9858dd0814185d5cd959608a1b604082015260600190565b90815260200190565b60009081526020902090565b60008219821115612e5d57612e5d612f42565b500190565b600082612e7157612e71612f58565b500490565b6000816000190483118215151615612e9057612e90612f42565b500290565b600082821015612ea757612ea7612f42565b500390565b60005b83811015612ec7578181015183820152602001612eaf565b83811115610f775750506000910152565b600281046001821680612eec57607f821691505b60208210811415612f0d57634e487b7160e01b600052602260045260246000fd5b50919050565b6000600019821415612f2757612f27612f42565b5060010190565b600082612f3d57612f3d612f58565b500690565b634e487b7160e01b600052601160045260246000fd5b634e487b7160e01b600052601260045260246000fd5b634e487b7160e01b600052604160045260246000fd5b6001600160e01b0319811681146113d257600080fdfea26469706673582212209cccac8f6b1350633b3d9ce721f3ad8ad3f8a5928f8ff24605c7aab2c12757f464736f6c63430008000033",
  "linkReferences": {},
  "deployedLinkReferences": {}
}